:020000040800F2
:10000000F80D0010590200086102000863020008A0
:10001000650200086702000869020008000000008D
:10002000000000000000000000000000A101000826
:100030006D02000800000000F5010008B94D00083D
:10004000730200087302000873020008854100086B
:1000500073020008730200087302000873020008AC
:1000600073020008691F0008730200087302000889
:10007000730200087302000873020008730200088C
:10008000730200087302000873020008730200087C
:10009000730200087302000873020008951F00082D
:1000A000730200087302000873020008730200085C
:1000B000730200087302000873020008730200084C
:1000C000730200087302000873020008730200083C
:1000D00073020008A54E0008E54E00086D4F0008A9
:1000E000730200087302000873020008730200081C
:1000F000730200087302000873020008730200080C
:1001000073020008730200087302000873020008FB
:10011000554E0008730200087302000873020008BD
:1001200073020008730200087302000873020008DB
:1001300073020008730200087302000873020008CB
:1001400073020008730200087302000873020008BB
:1001500073020008730200087302000873020008AB
:10016000730200087302000873020008730200089B
:10017000730200087302000873020008730200088B
:100180007302000873020008DFF810D000F0DCFEF4
:10019000004800478D7E0008AFF30080F80D001086
:1001A0002A4B19680868B0E8F04F80F30988BFF35C
:1001B0006F8F4FF0000080F311887047000000003F
:1001C00006480068006880F3088862B661B6BFF32D
:1001D0004F8FBFF36F8F00DF00BF00BF08ED00E05F
:1001E000DFF80C00016841F470010160704700BF46
:1001F00088ED00E0EFF30980BFF36F8F134B1A68AF
:100200001EF0100F08BF20ED108A20E9F04F10609B
:1002100008B44FF0500080F31188BFF34F8FBFF345
:100220006F8F0AF009FE4FF0000080F3118808BCC0
:1002300019680868B0E8F04F1EF0100F08BFB0EC66
:10024000108A80F30988BFF36F8F7047A8000010F1
:10025000EFF30580704700000648804706480047D6
:10026000FEE7FEE7FEE7FEE7FEE7FEE7FEE7FEE766
:10027000FEE7FEE7ED4D0008890100082DE9F04199
:100280000024061B254671F1000605DA012400272B
:10029000D0EB070067EB0101161E73F1000605DACB
:1002A0000027D2EB0702012567EB030300F08CFC6B
:1002B00086460E4617469C46AC4204D00025D0EB3D
:1002C000050E65EB010624B10020D2EB000760EBC0
:1002D000030C704631463A466346BDE8F081A0F112
:1002E0004101192900D82030704740EA01039B07DB
:1002F00003D009E008C9121F08C0042AFAD203E09B
:1003000011F8013B00F8013B521EF9D27047D2B2FE
:1003100001E000F8012B491EFBD270470022F6E7EE
:1003200010B513460A4604461946FFF7F0FF20466B
:1003300010BD30B505462A460B4612F8010B13F8DE
:10034000014B08B1A042F8D01CB1002802D06D1CAE
:10035000F1E7284630BD10B5044604E00B7800F8FC
:10036000013B03B1491C521EF8D2204610BD421C6D
:1003700010F8011B0029FBD1801A704710B500222C
:1003800000E0521C835C8C5CA34201D1002BF8D1AD
:10039000D8B2E1B2401A10BD30B504460020034681
:1003A00000E05B1C934203D2E05CCD5C401BF8D0C4
:1003B00030BD30B505460020034600E05B1C93428B
:1003C00005D2EC5CC85C201A01D1002CF6D130BDFE
:1003D00070B50F4D00B92868002412E00A4602E00B
:1003E0009E4203D0521C1378002BF9D1DAB222437B
:1003F00005D02BB124B1002100F8011B04E0044614
:10040000401C0678002EE9D12860204670BD00000F
:10041000700100102DE9FF4F087883B09946FF283E
:1004200005D0491C2D2804D00024002008E000201D
:100430000BE00124F9E700EB800003EB4000491CCE
:100440000B78FF2BF7D104B14042002302931478BC
:1004500019461D462D2C01D02B2C04D1521C2D2CBD
:1004600013D000240294AA461478FF2C0FD00A253A
:10047000A3FB057801FB05814FF0000C03FB0C1179
:10048000521CE3194AEB0101EEE70124EAE781443B
:1004900053EA010002D019F5C87F06DA039800215B
:1004A000C0E9001107B0BDE8F08F0025AE4E2F4621
:1004B000DFF8B882184600F023FDCDE90001B9F15C
:1004C000000002DAC9F1000400E004460023A74A54
:1004D0001AEB030B42EB045A12E0E00707D02A465E
:1004E00033463846414600F0F9F9074688462A4621
:1004F00033461046194600F0F1F905460E466410E1
:10050000002CEAD1DDE90001B9F1000F5A4653464B
:1005100006DA00F055FA3A46434600F051FA05E093
:1005200000F0DCF93A46434600F0D8F9029A0AB1E5
:1005300081F00041039AC2E90001B3E72DE9FF4FC2
:100540001F468DB0D7E901464FF0FF382E204546B3
:100550004FF000090B90B9696D1C0E988847396AF5
:10056000824688470028F6D1BAF1FF3F0AD024F42A
:10057000D064002E11DDBAF12B0F08D0BAF12D0F87
:100580000BD102E0404611B08DE744F48064B969B4
:100590006D1C0E9888478246761E6946600501D517
:1005A0002D2000E02B208DF8000001F1010B0DF152
:1005B000200809E0B9696D1C0E98884782460F989B
:1005C00044F40074761E0560002E02DDBAF1300F8F
:1005D000F0D00B998A453ED144F0800406E00F9993
:1005E000681CA9F1010944F400740860B9696D1C24
:1005F000761E0E98884782463028F0D02BE00B9963
:100600008A4505D1200603D444F08004761E18E004
:10061000504605F041FC08B30DF11301761E44F479
:1006200000748B4508D2AAF130000BF8010B2006AC
:1006300007D5A9F1010003E0200602D409F1010069
:100640008146A00502D50F99681C0860B9696D1C28
:100650000E9888478246002ED1DC53E0002E51DDF3
:10066000BAF1650F02D0BAF1450F4BD1A00549D5BB
:10067000B9696D1C24F44074761E0E988847824632
:10068000002E0CDD2B2804D0BAF12D0F07D144F435
:100690008074B9696D1C0E9888478246761EE00505
:1006A00001D52D2100E02B2108F8011BCDF82C806D
:1006B00021E00DF12901761E44F4007488450CD226
:1006C000AAF1300010F0FF0088F8000002D10B9969
:1006D000884509D908F1010806E0E00501D524485C
:1006E00001E042F20F708146B9696D1C0E9888478F
:1006F00082460F980560002E04DD504605F0CCFBC5
:100700000028D6D1F9690E988847FF208BF80000A1
:1007100088F800000020069007904B466A4608A91A
:1007200006A8FFF777FEA00502D46FF001002AE7C4
:1007300014F0240F0AD0E00714D1DDE9061238685E
:10074000031D3B600068C0E900120BE0DDE9060113
:1007500000F008FA0146E00704D13868021D3A604B
:100760000068016028460EE7000014400000F03FDA
:10077000F1D8FFFF70B5064604F07CFD046805461D
:100780000A220021304600F0EFFA2C6070BD2DE9FE
:10079000FE4F804681EA0300C00F0C46009021F016
:1007A000004123F00045B8EB0200A94105D24046C4
:1007B000214690461C460B46024623F0004010435B
:1007C00047D0270DC7F30A00C3F30A510290401A1D
:1007D000019040286BDAC3F3130040F4801B0098AB
:1007E000924620B10023D2EB030A63EB0B0B019876
:1007F0005946C0F14002504600F017FA06460D4631
:1008000050465946019A00F02FFA10EB080061415A
:10081000002487EA115284EAE7731A4340D0009A11
:1008200062B3019A012A4FEA075215DC001B61EB03
:1008300002014FF0004202EA0752CDE90042001CDB
:1008400041F5801132462B4600F00CFB03B0BDE8A9
:10085000F08F40462146F9E7001B61EB0201001CC6
:1008600041F5801300185B412018A2F5001747EBF3
:10087000030140EAD570B6196D4111E06D084FEAE9
:10088000360645EAC0754FEA0752001B61EB0201CC
:10089000001C41F5801149084FEA30000019514110
:1008A00032462B4603B0BDE8F04F00F0CCBA0098BA
:1008B000012240000023D0EB020263EBE0730098BA
:1008C00021464FEAE074B8EB000061EB0401E9E770
:1008D00083F000435BE781F0004158E72DE9FE4FCC
:1008E00081EA030404F0004421F0004100944FF039
:1008F000000B23F0004350EA01045ED052EA0304E7
:100900005BD0C3F30A54C1F30A552C44A4F2F33468
:100910000194A0FB0254C1F3130141F48011C3F30D
:10092000130343F4801301FB024400FB034E840ACB
:10093000970A44EA815447EA8357A4FB0768029563
:100940008D0A05FB07854FEA932C04FB0C54270501
:10095000029D4FEA065847EA1637B5EB08056EEBDD
:10096000070C870E920E47EA811742EA8312A7FB13
:100970000201B6EB0B0164EB00042B0D43EA0C33D0
:100980005E1844EB1C50DA465146E7FB0201C5F302
:1009900013044FEA0B3343EA14534FEA0432019C29
:1009A00043EA0603A4F10C040294009CCDE900B4D0
:1009B00000F058FA03B0BDE8F08F00200146F9E7D7
:1009C0002DE9F04D81EA030404F0004B21F00045CD
:1009D00014464FF0000A23F0004150EA050220D0EF
:1009E00054EA01021DD0C5F30A570246C5F31303AA
:1009F000C1F31300C1F30A5640F4801543F4801389
:100A0000A7EB0608101BD64608F2FD3873EB05006D
:100A100002D308F1010801E092185B41B8F1000F20
:100A200003DA00200146BDE8F08D00204FF480116C
:100A3000064684460EE0171B73EB050705D3121B11
:100A400063EB050306434CEA010C49084FEA30000A
:100A500092185B4150EA0107EDD152EA030012D02F
:100A600082EA040083EA0501084305D0101BAB416C
:100A700006D20122002306E000224FF0004302E0EC
:100A80006FF0010253101AEB06004CEB085110EB0B
:100A90000A0041EB0B01BDE8F04D00F0D4B970B590
:100AA000C1F30A5201F000450024C1F3130140F2E2
:100AB000FF3341F480119A4201DA002070BD40F208
:100AC00033439A42A2F2334203DC524200F0BCF8B4
:100AD00000E090402C43F1D0404270BD00F0004255
:100AE00030F000400AD0C10D01F56071C0F316006E
:100AF00042EA0151C20840071143704700200146F5
:100B00007047000030B5041E71F1000404DB4FF0A3
:100B10000044404264EB0101141E73F1000405DB44
:100B20001C464FF00043524263EB04038B4208BF64
:100B3000824230BD30B5041E71F1000404DB4FF079
:100B40000044404264EB0101141E73F1000405DB14
:100B50001C464FF00043524263EB0403994208BF26
:100B6000904230BD01F0004330B421F0004150EA22
:100B7000010206D00A0DA2F56072C1F31301002A2A
:100B800002DC30BC00207047440F44EAC104C100BD
:100B9000E01830BC00EBC25000F01EB930B50B4677
:100BA000014600202022012409E021FA02F59D429D
:100BB00005D303FA02F5491B04FA02F52844151E71
:100BC000A2F10102F1DC30BD2DE9F05F0546002005
:100BD00092469B4688460646814640241BE02846AE
:100BE00041464746224600F02FF853465A46C01A5F
:100BF000914110D311461846224600F016F82D1ADE
:100C000067EB01084F4622460120002100F00DF855
:100C100017EB00094E41201EA4F10104DFDC484619
:100C200031462A464346BDE8F09F202A04DB203A9D
:100C300000FA02F1002070479140C2F1200320FA2F
:100C400003F3194390407047202A04DB203A21FA2D
:100C500002F00021704721FA02F3D040C2F12002D5
:100C60009140084319467047202A06DBCB17203AEB
:100C700041FA02F043EAE07306E041FA02F3D040A1
:100C8000C2F120029140084319467047426842B1C0
:100C9000016811F8013B23B1521EC0E90012184649
:100CA00070470121C160881E704742685AB1C3680D
:100CB000016843B983688B4205D0491E521CC0E9C4
:100CC0000012002070474FF0FF3070470FB4002330
:100CD00000B589B00CA900910B996FF00042CB6070
:100CE0001E4B06931E4B07930423CDE901321D4A88
:100CF000089202466B460020FFF720FC09B05DF821
:100D000014FB70B586B006464FF0FF300091CDE978
:100D10000101002015460C4604903246694604A89D
:100D2000FFF7D4FF02460498211825B108B1084600
:100D300000E020462860049800280DD0002A02DD3B
:100D40000098884208D0081B0094CDE9010432467F
:100D5000694604A8FFF7BAFF06B070BD8D0C000805
:100D6000AB0C0008750F00082DE9F04791460F46BF
:100D700080460446002614F8015B2DB100F0F6F819
:100D80000068405DC007F6D12B2D02D02D2D18D064
:100D9000641E4A463946204600F0F5F827B1396806
:100DA000A14201D1C7F8008071054FF002040BD5B4
:100DB0004042002803DD04F05DFA0460A007BDE8AE
:100DC000F08746F48066E4E70028F8DA04F052FA87
:100DD00004606FF00040F2E70029A8BF7047401C94
:100DE000490008BF20F00100704710B4B0FA80FC41
:100DF00000FA0CF050EA010404BF10BC704749B17E
:100E0000CCF1200421FA04F411FA0CF118BF0121ED
:100E100021430843A3EB0C01CB1D4FEA00614FEACD
:100E2000102042BF002010BC704700EBC35010449C
:100E30000029A4BF10BC7047401C490008BF20F027
:100E4000010010BC704710B5141E73F1000408DADD
:100E5000401C41F1000192185B411A4301D120F07E
:100E6000010010BD2DE9F04D92469B4611B1B1FA3B
:100E700081F202E0B0FA80F220329046FFF7D5FE10
:100E800004460F4640EA0A0041EA0B0153465A461F
:100E9000084313D0114653EA010019D0C8F14002AB
:100EA0005046FFF7D1FE05460E465046594642468B
:100EB000FFF7BBFE084305D0012004E02046394679
:100EC000BDE8F08D0020054346EAE0762C43374329
:100ED0000A986305E40AA0EB08000022FD0A44EA30
:100EE00047540A3002D500200146E9E701051019F0
:100EF0006941DDE9084500196941BDE8F04DA2E707
:100F00000EB540F2334202920022CDE90022134690
:100F1000FFF7A8FF03B000BDC1F30A52C1F31301EC
:100F200040F2FF3341F480119A4202DA0020014678
:100F3000704740F233439A42A2F2334202DC5242FB
:100F4000FFF782BEFFF771BE064C074D06E0E06872
:100F500040F0010394E8070098471034AC42F6D300
:100F6000FFF716F9A8090108D809010800487047D9
:100F70003C08010810B50446FFF7F8FF0068005D63
:100F800000F0010010BD2DE9F05F824600780027D7
:100F900015468B460AF10104B946302801D09DB1AF
:100FA00013E014F8010B0127782803D0582801D04A
:100FB00045B10AE00DB1102D07D10027102514F816
:100FC000010B02E0082500E00A250026B0460EE0ED
:100FD00005FB080005FB06F1012701EB10461FFA8F
:100FE00080F8B6F5803F00D3B94614F8010B2946C6
:100FF00000F069F80028EBDABBF1000F05D00FB163
:10100000641E00E05446CBF80040B9F1000F06D052
:1010100004F030F902210160C81EBDE8F09F48EAE3
:101020000640FAE72DE9F04D00231A461B1A8A41C3
:1010300003DB00200146BDE8F08DC1F30A52C1F385
:10104000130141F480154FF0000BD10702D10018B5
:101050006D41521E0027044640F2FF11384601EB55
:10106000620A3E468046024600204FF48011FFF798
:10107000EBFDC2197141BB1846EB0100B4EB030C48
:1010800075EB000C04D3E41A65EB000517460E4619
:10109000241908F101006D4180463428E3DDF91977
:1010A00046EB0600091BA84103D24FF0FF3213465E
:1010B00001E0002213461BEB070046EB0A51BDE896
:1010C000F04DFFF7C0BE3A2800D2303820F02002A1
:1010D000412A01D3A2F13700884201D34FF0FF30FB
:1010E000704770B58C1810F8015B15F0070301D13B
:1010F00010F8013B2A1106D110F8012B03E010F87B
:10110000016B01F8016B5B1EF9D12B0705D400239D
:10111000521E0DD401F8013BFAE710F8013BCB1A3F
:10112000921C03E013F8015B01F8015B521EF9D534
:10113000A142D8D3002070BD21B1826842F00102E3
:10114000826003E0826822F0010282607047000042
:101150000021084A1168084A1140D0E900231A43C7
:1011600083681A43C3681A431143044AC2F804133C
:101170007047000004230140E030FCFF00200140E4
:101180000146C86C80B270470246002013680B40CD
:101190000BB1012000E000207047000030B502468E
:1011A000002000235068104C20400D790C6844EA60
:1011B00005242043506090680C4C2040D1E9035432
:1011C0002C438D682C434D7944EA450420439060BC
:1011D000D06A20F470000C7D641EE4B2234340EA20
:1011E0000350D06230BD0000FFFEFFFCFDF7FFC0E2
:1011F000F0B504460D4600200021092D11DDE06800
:10120000A5F10A0606EB4607072606FA07F188430A
:10121000A5F10A0606EB460603FA06F10843E0606C
:101220000CE0206905EB4507072606FA07F188431D
:1012300005EB450603FA06F108432061072A0FDA99
:10124000606B561E06EB86071F2606FA07F18843D9
:10125000561E06EB860605FA06F10843606322E097
:101260000D2A0FDA206BD61F06EB86071F2606FA1B
:1012700007F18843D61F06EB860605FA06F10843F8
:10128000206310E0E06AA2F10D0606EB86071F2638
:1012900006FA07F18843A2F10D0606EB860605FA69
:1012A00006F10843E062F0BD816841F08041816051
:1012B0007047000010B5044600230122214608486B
:1012C000FFF796FF0648FFF7EFFF00BF0221044833
:1012D000FFF75AFF0028F9D00148FFF751FF10BD72
:1012E0000022014016E00C48007810B90B48007845
:1012F00048B140210A4800F0D3FF4FF400410948AB
:1013000000F0CEFF03E002F0DDFC00F041F86420C5
:1013100009F060FCE7E70000210100101D0000104B
:1013200000100240000402400DE00748007810B9A8
:101330000648007810B103F059FF01E003F04EFFBA
:10134000642009F047FCF0E7220100101E000010A5
:101350001CB50121022002F0B7FB4FF400400090C1
:1013600001208DF8040000208DF8060003208DF880
:10137000050000208DF807006946044800F018FFBA
:101380004FF40041014800F089FF1CBD00040240F9
:1013900010B54FF40041024800F080FF10BD00007E
:1013A0000004024087E000F017F900280FD042A1A6
:1013B0004348FEF7BEFF58B1414942A003F01EFF6B
:1013C000424801783E4803F0E5FB00F0F7F86FE093
:1013D0003FA13B48FEF7ADFF40B1394939A003F0CA
:1013E0000DFF03F0E9FE00F0E9F861E03AA13448AE
:1013F000FEF79FFF40B1324932A003F0FFFE03F039
:10140000C9FE00F0DBF853E035A12D48FEF791FF4F
:1014100058B12B492BA003F0F1FE294809F094F9AB
:101420003049088000F0CAF842E02FA12448FEF7B6
:1014300080FF58B1224923A003F0E0FE204809F0C4
:1014400083F92A49088000F0B9F831E028A11C4846
:10145000FEF76FFF58B11A491AA003F0CFFE1848E3
:1014600009F072F92349088000F0A8F820E022A1D1
:101470001348FEF75EFF58B1114912A003F0BEFEFB
:101480000F4809F061F91D49088000F097F80FE056
:101490001BA10B48FEF74DFF50B1094909A003F00D
:1014A000ADFE074809F050F91749088000F086F8AA
:1014B000642009F08FFB76E774696D650000000019
:1014C000B603001025730D0A000000001A0000107A
:1014D000766F6C756D652B00766F6C756D652D0084
:1014E000746D70005400001068756D005600001097
:1014F0006D713200580000106D7135005A000010F7
:1015000074616E676C6500005C00001010B588B0F7
:1015100004460121022002F0D7FA0121880402F0DA
:10152000E3FA02208DF8080003208DF8090000205E
:101530008DF80A0001208DF80B004FF440600190F7
:1015400001A91C4800F034FE07220A21194800F0C6
:1015500077FE07220B21174800F072FE049400204A
:10156000ADF81400ADF81600ADF81800ADF81C0089
:101570000C20ADF81A0004A90F4803F097FD2720AE
:101580008DF80C0000208DF80D008DF80E00012064
:101590008DF80F0003A801F0D3FF012240F225517E
:1015A000054803F05DFD0121034803F016FD08B076
:1015B00010BD0000000402400048004010B54FF488
:1015C00000710348FEF7AAFE00200249088010BD02
:1015D000B6030010160000100C48008808B900205F
:1015E00070470A4800880A490988884208D1074894
:1015F0000088084908800020044908800120EFE79E
:1016000002480088024908800020E9E7160000101F
:10161000180000101A0000100EB543E000F08AFE1A
:10162000F8B100235A1E19461F48006809F054FDFE
:1016300001201E490870002020214FF6FF724FF450
:10164000FC63CDE90021029019A2E621502001F0AF
:10165000A6F900231A4619461348006809F06AFEE5
:101660001DE000235A1E19460F48006809F034FD9A
:1016700000200E49087020214FF6FF724FF4FC63E2
:10168000CDE9002102900CA2E621502001F087F95B
:1016900000231A4619460448006809F04BFE0A2048
:1016A00009F098FABAE7000060000010440000104A
:1016B00068617665000000006E6F20200000000069
:1016C0000EB53BE01E4800F0D1F898B31C48807876
:1016D0001C4908701A4800781B49087000235A1EDC
:1016E00019461A48006809F0F7FC20204FF6FF71F0
:1016F0004FF4FC62CDE90021029011488278022368
:101700001E214B2001F000F920204FF6FF714FF40D
:10171000FC62CDE9002102900948027802234621AB
:101720004B2001F0F1F800231A46194607480068DB
:1017300009F000FE4FF4FA6009F04CFAC2E700002D
:10174000380000103D0000103E0000106000001046
:101750001CB50121082002F0B7F901208DF8040022
:1017600003208DF8050000208DF8060001208DF87B
:101770000700400200906946044800F019FD4FF44C
:101780000071024800F08AFD1CBD0000000C024000
:1017900010B5002400F0A2F804E0012000F014F9D4
:1017A000601CC4B24FF400710F4800F06CFD0128BA
:1017B00001D1642CF1DB642C01DB002010BD00247E
:1017C00004E0012000F000F9601CC4B24FF4007185
:1017D000054800F058FD08B9642CF2DB642C01DBED
:1017E0000020EBE70120E9E7000C024010B50024DF
:1017F00004E0012000F0E8F8601CC4B24FF400716E
:10180000114800F040FD012801D1642CF1DB0024D7
:1018100004E0012000F0D8F8601CC4B24FF400715D
:10182000094800F030FD08B9642CF2DB282000F0F4
:10183000CBF84FF40071044800F025FD012800D1D9
:1018400010BD0020FCE70000000C024070B5002530
:10185000002400BF06E06006040EFFF7C7FF044344
:10186000681CC5B2082DF6DB204670BD70B5044675
:10187000002500F01DF8FFF78BFFA0B100BF04E0CA
:10188000FFF7E4FF6055681CC5B2052DF8DB207832
:1018900061780844A1780844E178084421798842B5
:1018A00003D0002070BD0020FCE70120FAE7000013
:1018B00010B500F027F84FF40071074800F0ECFC79
:1018C000142000F061F84FF40071034800F0E6FCCA
:1018D0001E2000F079F810BD000C02401CB501215B
:1018E000082002F0F1F800208DF8040001208DF8A6
:1018F0000700400200906946014800F059FC1CBDF9
:10190000000C02401CB50121082002F0DDF8012086
:101910008DF8040003208DF8050000208DF80600E6
:1019200001208DF80700400200906946044800F04D
:101930003FFC4FF40071024800F0B0FC1CBD0000F9
:10194000000C024070B50446042003F021FA0C4854
:10195000047025464FF47A704543012009490880F8
:101960004FF0E020006940F002004FF0E0210861F4
:1019700008464561006940F00100086170BD000043
:10198000340000103600001070B5044609F098FECF
:10199000012810D00B480088844206D309480088EB
:1019A000B4FBF0F5284609F015F906480088B4FBA9
:1019B000F0F100FB11444FF47A7104FB01F000F0E8
:1019C00003F870BD36000010F0B503460022002475
:1019D0004FF0E0277D69134F3F68DFF84CC0B7FB3D
:1019E000FCF707FB03F64FF0E027B96917E04FF06B
:1019F000E027B86988420BD0884202D20F1A3A44D5
:101A000002E02F1A0F443A440146B24200D307E0E5
:101A10004FF0E0273C6904F0010707B900E0E6E772
:101A200000BFF0BD2000001040420F0010B54FF481
:101A300080710348FEF772FC00200249088010BD47
:101A4000E80600101C01001010B588B00446012102
:101A5000084602F039F80121480402F045F8022056
:101A60008DF8080003208DF8090000208DF80A0089
:101A700001208DF80B000C20019001A9284800F0EE
:101A800097FB07220221264800F0DAFB07220321F8
:101A9000234800F0D5FB04940020ADF81400ADF805
:101AA0001600ADF81800ADF81C000C20ADF81A00B7
:101AB00004A91C4803F0FAFA26208DF80C00002037
:101AC0008DF80D008DF80E0001208DF80F0003A891
:101AD00001F036FD012240F22551124803F0C0FA10
:101AE0000121104803F079FA0121042001F0ECFFF4
:101AF0001020019001208DF8080000208DF80A00C8
:101B000003208DF8090000208DF80B0001A906487C
:101B100000F04EFB1021044800F0C0FB08B010BDDF
:101B200000000240004400400008024000B5C1B07F
:101B30004FF4807101A8FEF7F1FB1021584800F026
:101B4000ABFB6420FFF720FF1021554800F0A6FBF7
:101B50006420FFF719FFFFF769FF52A003F04EFB67
:101B600000BF54A154A000F0BFF90028F9D16420AF
:101B7000FFF70AFF53A003F041FB00BF4DA156A0A1
:101B800000F0B2F90028F9D16420FFF7FDFE56A05D
:101B900003F034FB00BF47A159A000F0A5F90028CD
:101BA000F9D16420FFF7F0FE5FA003F027FB4FF4AC
:101BB000807101A8FEF7B2FB60A363A263A101A834
:101BC00003F02CFB00BF3BA101A800F08DF9002819
:101BD000F9D16420FFF7D8FE62A003F00FFB4FF4A9
:101BE000807101A8FEF79AFB664B67A26CA101A861
:101BF00003F014FB00BF2FA101A800F075F9002825
:101C0000F9D16420FFF7C0FE71A003F0F7FA4FF49A
:101C1000807101A8FEF782FB744A75A101A803F048
:101C2000FDFA00BF23A101A800F05EF90028F9D158
:101C30006420FFF7A9FE75A003F0E0FA4FF480716D
:101C400001A8FEF76BFB78A379A285A101A803F098
:101C5000E5FA00BF17A101A800F046F90028F9D164
:101C60006420FFF791FE85A003F0C8FA4FF480715D
:101C700001A8FEF753FB88A290A101A803F0CEFAB9
:101C800000BF0CA101A800F02FF90028F9D16420B1
:101C9000FFF77AFE8FA003F0B1FA41B000BD00005B
:101CA00000080240312E20C8EDB8B4CEBB38323621
:101CB000360D0A004F4B000041542B5253540D0A6D
:101CC00000000000322E20C9E8D6C3CEAACDB8B499
:101CD000ABC4A3CABD0D0A0041542B43574D4F441A
:101CE000453D310D0A000000332E20C1ACBDD3B0FC
:101CF000A2C0EFD4C6B7FECEF1C6F70D0A000000B1
:101D000041542B434950534E54504346473D312C88
:101D1000382C226E7470312E616C6979756E2E6369
:101D20006F6D220D0A000000342E20C1ACBDD357C8
:101D3000494946C8C8B5E30D0A00000032303031C9
:101D400033363337000000006573700041542B4375
:101D5000574A41503D222573222C222573220D0A19
:101D600000000000352E20C1ACBDD3B0A2C0EFD41E
:101D7000C6B5C4B2FAC6B74944B5C8D0C5CFA20DDE
:101D80000A000000BC0801086965747465726D6919
:101D90006E616C266B306770395072525A556B0009
:101DA00041542B4D515454555345524346473D30B1
:101DB0002C312C224E554C4C222C222573222C22C5
:101DC0002573222C302C302C22220D0A000000001A
:101DD000362E20C1ACBDD3B0A2C0EFD4C64D5154F5
:101DE00054B5C8D0C5CFA20D0A00000000090108F3
:101DF00041542B4D515454434C49454E5449443D54
:101E0000302C222573220D0A00000000372E20C13D
:101E1000ACBDD3B0A2C0EFD4C6D3F2C3FBB6CBBF28
:101E2000DAB5C80D0A000000313838330000000070
:101E3000696F742D30367A3030653732706D686670
:101E40006D33722E6D7174742E696F746875622EA5
:101E5000616C6979756E63732E636F6D00000000AD
:101E600041542B4D515454434F4E4E3D302C22255E
:101E700073222C25732C310D0A000000382E20B659
:101E8000A9D4C4B0A2C0EFD4C6B7FECEF1C6F7D66F
:101E9000F7CCE20D0A0000002F6B306770395072EA
:101EA000525A556B2F6965747465726D696E616CF9
:101EB0002F757365722F67657400000041542B4DB8
:101EC0005154545355423D302C222573222C310D50
:101ED0000A00000045535038323636B3F5CABCBB51
:101EE000AFCDEAB3C90D0A0070B504460D46C82649
:101EF000204603F02FF80EE000F016F840B1294616
:101F00000848FEF716FA18B1FFF790FD002070BDE3
:101F10000A20FFF739FD301EA6F10101CEB2EBD148
:101F20000120F4E7E80600100C48008808B90020FA
:101F300070470A4800880A490988884208D107483A
:101F40000078084908700020044908800120EFE764
:101F500002480088024908800020E9E71C010010BF
:101F60001E0100102001001010B5082000F030F80C
:101F700060B10748007818B100200549087002E0F8
:101F8000012003490870082000F01CF810BD000073
:101F90001E00001010B54FF4807000F019F868B101
:101FA0000748007818B100200549087002E00120B8
:101FB000034908704FF4807000F004F810BD000071
:101FC0001D0000100149086070470000143C0140EA
:101FD00001460020034A12680A400AB1012000E0CD
:101FE00000207047143C0140002123498279002AD7
:101FF0003AD00A46126803689A430B461A600A1DD3
:10200000126803689A430B1D1A60027911440A682A
:1020100003681A430A60184A0832126803689A4330
:10202000154B08331A601A1D126803689A43124B45
:102030000C331A604279102A0ED11A1F12680368F5
:102040001A430D4B08331A601A1D126803681A43AD
:10205000094B0C331A600DE00749427911440A68B4
:1020600003681A430A6005E0027911440A680368AC
:102070009A430A6070470000003C01401CB50024F0
:10208000A146A246FFF752FD1FE002F04FFEB4F555
:10209000FA7F16DD00240D4890F8029090F800A019
:1020A0000B4805880B4806880B4807780B4890F8C2
:1020B000008033462A4651464846CDE9007801F073
:1020C000C9FC641C0A2008F085FDDEE7380000101A
:1020D00040000010420000104400001045000010B5
:1020E0000EB543E000F032F9F8B900235A1E194644
:1020F0001F48006808F0F0FF01201E49087000200A
:1021000020214FF6FF724FF4FC63CDE900210290CD
:1021100019A2BE21502000F042FC00231A461946A5
:102120001348006809F006F91DE000235A1E1946FD
:102130000F48006808F0D0FF00200E4908702021E9
:102140004FF6FF724FF4FC63CDE9002102900CA220
:10215000BE21502000F023FC00231A4619460448F3
:10216000006809F0E7F80A2008F034FDBAE700003B
:1021700060000010450000106861766500000000F6
:102180006E6F2020000000001CB50121202001F00E
:102190009BFC4020009000208DF8040001208DF869
:1021A00007006946014800F003F81CBD0014024016
:1021B000F0B50A4600210023002400BF3DE00125C0
:1021C00005FA01F3156805EA03049C4234D1056859
:1021D0004F000326BE40B543056015794E00B5405B
:1021E0000668354305601579012D02D01579022D59
:1021F00016D185684F000326BE40B54385605579EA
:102200004E00B540866835438560456801268E409E
:10221000B5434560456896798E40B6B23543456012
:10222000C5684F000326BE40B543C560D5794E0052
:10223000B540C6683543C560491C1029BFD3F0BD01
:10224000F0B5002300244D07ED0E02FA05F3CE1081
:1022500000F1200555F826504E07F70E0F26BE4018
:10226000B543CF1000F1200646F82750CE1000F1FC
:10227000200555F8265045EA0304CE1000F120054C
:1022800045F82640F0BD0246002013690B400BB113
:10229000012000E0002070474183704701837047B0
:1022A00042694A40426170470AB1018300E04183BC
:1022B000704700001CB50121084601F005FC2020F4
:1022C000009000208DF8040002208DF80700694678
:1022D0000148FFF76DFF1CBD000002401CB5012145
:1022E000082001F0F1FB00208DF804004FF400609D
:1022F000009069460148FFF75BFF1CBD000C0240DF
:102300001CB50121082001F0DFFB01208DF804003D
:1023100003208DF8050000208DF8060001208DF8BF
:102320000700C002009069460148FFF741FF1CBD4D
:10233000000C024010B520210348FFF7A4FF08B1AC
:10234000012010BD0020FCE70000024010B5402134
:102350000348FFF798FF08B1012010BD0020FCE7FB
:102360000014024000B585B001210C2001F0ACFB47
:102370000121880301F0C8FB00208DF810008DF8C2
:1023800013000820039003A92148FFF711FF002044
:102390008DF810008DF813004FF48070039003A99E
:1023A0001C48FFF705FF0321084602F08DF90821BC
:1023B000022002F089F94FF48470009000208DF81B
:1023C00004000C208DF8050001208DF806006846F9
:1023D000FFF70AFE09208DF8080003208DF8090098
:1023E0008DF80A0001208DF80B0002A801F0A8F872
:1023F00017208DF8080003208DF809008DF80A00D9
:1024000001208DF80B0002A801F09AF805B000BD7C
:10241000000C0240000802402DE9F04107460C463E
:1024200015461E462A2000F0EBFA384600F0D8FA8E
:10243000284600F0D5FA2B2000F0E2FA204600F002
:10244000CFFA304600F0CCFA2C2000F0D9FABDE8E3
:10245000F08170B504460D4616462B4622462946A5
:102460002046FFF7D9FF304600F0BAFA70BD2DE9DB
:10247000F04706460F4614461D46DDF820A0681EAC
:1024800083B2601E82B239463046FFF7C5FFB846B8
:102490000EE0B14606E0504600F0A2FA09F1010054
:1024A0001FFA80F9A145F6DB08F101001FFA80F858
:1024B000A845EEDBBDE8F0871CB50121562001F0F0
:1024C00003FB4FF48050009001208DF804000020A1
:1024D0008DF8060003208DF8050001208DF8070017
:1024E00069462548FFF764FE4FF480512248FFF704
:1024F000D5FE2A20009001208DF8040000208DF8E0
:10250000060003208DF8050001208DF807006946BC
:102510001A48FFF74DFE2A211848FFF7BFFE012099
:1025200000908DF8040000208DF8060003208DF83F
:10253000050001208DF8070069461148FFF738FEB5
:1025400001210F48FFF7AAFE8020009001208DF89E
:10255000040000208DF8060003208DF805000120FE
:102560008DF8070069460748FFF722FE80210548DD
:10257000FFF794FE1CBD000000180240001002404E
:10258000000802400004024010B5FFF795FF20212B
:102590008548FFF781FE6420FFF7F6F92021824885
:1025A000FFF77CFE6420FFF7EFF980217F48FFF7FB
:1025B00075FE6420FFF7E8F9112000F021FA782079
:1025C000FFF7E2F9CF2000F01BFA002000F011FA2B
:1025D000D92000F00EFA302000F00BFAED2000F0C8
:1025E0000FFA642000F005FA032000F002FA12202E
:1025F00000F0FFF9812000F0FCF9E82000F000FA7B
:10260000852000F0F6F9102000F0F3F9782000F0B2
:10261000F0F9CB2000F0F4F9392000F0EAF92C2091
:1026200000F0E7F9002000F0E4F9342000F0E1F9CF
:10263000022000F0DEF9F72000F0E2F9202000F09F
:10264000D8F9EA2000F0DCF9002000F0D2F90020EF
:1026500000F0CFF9C02000F0D3F9212000F0C9F933
:10266000C12000F0CDF9122000F0C3F9C52000F020
:10267000C7F9322000F0BDF93C2000F0BAF9C720BC
:1026800000F0BEF9C12000F0B4F9362000F0B8F92E
:10269000082000F0AEF93A2000F0B2F9552000F021
:1026A000A8F9B12000F0ACF9002000F0A2F9182040
:1026B00000F09FF9B62000F0A3F90A2000F099F984
:1026C000A22000F096F9F22000F09AF9002000F024
:1026D00090F9262000F094F9012000F08AF9E0201A
:1026E00000F08EF90F2000F084F9202000F081F92D
:1026F0001E2000F07EF9092000F07BF9122000F086
:1027000078F90B2000F075F9502000F072F9BA202A
:1027100000F06FF9442000F06CF9092000F069F92D
:10272000142000F066F9052000F063F9232000F082
:1027300060F9212000F05DF9002000F05AF9E12055
:1027400000F05EF9002000F054F9192000F051F972
:10275000192000F04EF9002000F04BF9122000F093
:1027600048F9072000F045F92D2000F042F9282013
:1027700000F03FF93F2000F03CF9022000F039F969
:102780000A2000F036F9082000F033F9252000F087
:1027900030F92D2000F02DF90F2000F02AF9292022
:1027A00000F02EF910BD00000010024000040240AD
:1027B0002DE9FF5F80468A4617469B460F9D002005
:1027C0000290CDF80080284605EBD071C1F3470494
:1027D0002046E21704EB5272D2102146E31704EBB5
:1027E0005373DB10A4EBC3030BB1012300E0002300
:1027F0001A446A4392B20192A7F12000C7B20AEBD1
:102800000500401E83B208EB0400401E82B2514610
:102810004046FFF701FE002669E00C2D07D107EBCB
:102820004700354901EB8000805D03901BE0102DCF
:1028300005D1324800EB0710805D039013E0182D9E
:1028400007D107EB47002E4901EB0010805D039094
:1028500009E0202D05D12B4800EB8710805D039007
:1028600001E0BDE8FF9F4FF000093AE01098C8B9B9
:10287000012000FA09F00399084018B1584600F009
:10288000AFF802E00E9800F0ABF80298401CC0B21E
:102890000290029890FBF4F104FB1100E8B90020CB
:1028A000029021E0012000FA09F00399084020B1CC
:1028B0005A4651464046FFF7CCFD08F101001FFA89
:1028C00080F80098A8EB0000A04206D1DDF8008057
:1028D0000AF101001FFA80FA06E009F1010000F098
:1028E000FF09B9F1080FC1DB00BF701C86B2019867
:1028F000864292DB00BFB4E774BB0008E8BF000863
:10290000D8C50008A8D700082DE9FF4F85B00746B5
:1029100091461D46DDE913A600200490304606EBE3
:10292000D071C1F3470B002434E0281B401EC1B214
:102930000A2006F029FDB9FBF0F00A21B0FBF1F204
:1029400001FB12080498A0B9681EA04211DDB8F17D
:10295000000F0CD1002004FB0B71CDE900A6029002
:1029600088B22022129B0699FFF722FF10E0012077
:102970000490002008F13001CAB204FB0B71CDE9CC
:1029800000A6029088B2129B0699FFF711FF00BFC4
:10299000601CC4B2AC42C8DB09B0BDE8F08F2DE9C1
:1029A000FE4F06460F4614469846DDE90D5ADDF8FF
:1029B000309010E0CDE9015ACDF8009022784346DE
:1029C00039463046FFF7F4FE284605EBD07106EB9A
:1029D00061018EB2641C20780028EBD1BDE8FE8F27
:1029E00010B50446201200F01BF8E0B200F018F811
:1029F00010BD10B50446204600F012F810BD0000CE
:102A000010B5044601210548FFF746FC204600F0BA
:102A100007F801210148FFF741FC10BD0008024002
:102A200070B5044602211348FFF736FC002519E073
:102A30004FF480511048FFF72FFC04F0800020B1C4
:102A400008210C48FFF72AFC03E008210948FFF79A
:102A500023FC4FF480510848FFF720FC6006040E69
:102A6000681CC5B2082DE3DB02210248FFF716FC03
:102A700070BD000000100240001802401CB501218A
:102A8000122001F021F81020009001208DF80400A0
:102A900000208DF8060003208DF8050000208DF839
:102AA000070069460E48FFF783FB40200090012095
:102AB0008DF8040000208DF8060003208DF8050035
:102AC00000208DF8070069460648FFF771FB40219A
:102AD0000448FFF7E3FB10210148FFF7DFFB1CBDB3
:102AE000000402400010024044F6206008F072F832
:102AF00083E04248007842490988884206DD012087
:102B000002F0FCF84FF4FA6008F064F83D480078F1
:102B10003D490988884206DD022002F0EFF84FF4B3
:102B2000FA6008F057F8394800883949098888421E
:102B300006DD032002F0E2F84FF4FA6008F04AF8EC
:102B40003448008834490988884206DD042002F0B0
:102B5000D5F84FF4FA6008F03DF8304800780128C5
:102B600006D1052002F0CAF84FF4FA6008F032F8F6
:102B70002B480078012806D1062002F0BFF84FF458
:102B8000FA6008F027F8274B93ED000ABDEEC00A63
:102B900010EE102A002A01DB134600E05342224CBB
:102BA0002488A3421FDC214B93ED000ABDEEC00A2E
:102BB00010EE101A002901DB0B4600E04B421A4CC4
:102BC0002488A3420FDC1A4B93ED000ABDEEC00A25
:102BD00010EE100A002801DB034600E04342124CCD
:102BE0002488A34206DD072002F088F840F6B830BA
:102BF00007F0F0FF642007F0EDFF7AE73D000010DA
:102C0000540000103E00001056000010400000105C
:102C100058000010420000105A000010450000103B
:102C200044000010480000105C0000104C00001030
:102C30005000001010B586B004460121042000F0B9
:102C400043FF0121082000F03FFF0121080500F0AB
:102C50004BFF02208DF8040003208DF805000020B2
:102C60008DF8060001208DF80700000300906946EA
:102C70001448FFF79DFA0420009069461248FFF7B8
:102C800097FA08220C210F48FFF7DAFA08220221EE
:102C90000D48FFF7D5FA02940020ADF80C00ADF80E
:102CA0000E00ADF81000ADF814000C20ADF81200C5
:102CB00002A9064802F0FAF90121044802F08DF950
:102CC00006B010BD00080240000C02400050004059
:102CD00010B504462146054802F057FA00BF80218E
:102CE000024802F086F90028F9D010BD00500040DB
:102CF0000EB5002400F0FAF806E066A002F07EFAB5
:102D00004FF4FA70FEF740FE05F056FB0028F4D1B0
:102D10000023421E19466448006808F0DDF963A2EA
:102D20000121022000F04FFE62A20121032000F0E9
:102D30004AFE62A20121042000F045FE00231A464B
:102D400019465948006808F0F5FAA1E05D4A5E4965
:102D50005E4805F025FA0446002CF6D15B4B93ED56
:102D6000000ABDEEC00A10EE102A002A01DB13464D
:102D700000E053421E2B1BDC534B93ED000ABDEECB
:102D8000C00A10EE101A002901DB0B4600E04B428E
:102D90001E2B0DDC4B4B93ED000ABDEEC00A10EE6E
:102DA000100A002801DB034600E043421E2B1DDD14
:102DB00000235A1E19464648006808F08DF9002085
:102DC00020214FF6FF724FF4FC63CDE90021029001
:102DD00040A24FF487716420FFF7E1FD00231A46FB
:102DE00019463B48006808F0A5FA1CE000235A1E6B
:102DF00019463748006808F06FF9002020214FF687
:102E0000FF724FF4FC63CDE90021029034A24FF42D
:102E100087716420FFF7C3FD00231A4619462C482A
:102E2000006808F087FA00235A1E19461E480068F9
:102E300008F052F90523254890ED000ABDEEC00ABE
:102E400010EE102A0721022000F08AFD05231E48FB
:102E500090ED000ABDEEC00A10EE102A07210320F3
:102E600000F07EFD0523174890ED000ABDEEC00A74
:102E700010EE102A0721042000F072FD00231A46EC
:102E800019460948006808F055FAC820FEF77CFD8D
:102E90005CE700004D505536303530204552524FDA
:102EA00052200D0A00000000640000107069746375
:102EB000683A0000726F6C6C3A0000007961773AF2
:102EC00000000000500000104C00001048000010EE
:102ED000600000106368616E6765202000000000DC
:102EE0006E6F6368616E67650000000010B500F0EA
:102EF00065F880216B2000F053FA6420FEF744FD52
:102F000000216B2000F04CFA032000F0BBF90020F8
:102F100000F0B0F9322000F0DAF90021382000F09A
:102F20003FFA00216A2000F03BFA0021232000F044
:102F300037FA8021372000F033FA752000F0AAF824
:102F40000446682C0BD101216B2000F029FA0021E6
:102F50006C2000F025FA322000F0B9F901E00120E0
:102F600010BD0020FCE7000010B5002400F056F969
:102F7000002202210F48FFF797F90520FEF724FDF4
:102F8000012202210B48FFF78FF90520FEF71CFDF7
:102F900020210948FFF777F908B1012400E0002457
:102FA000002202210348FFF77FF90520FEF70CFD00
:102FB000204610BD00040240000802401CB501215B
:102FC000022000F081FD0121042000F07DFD0120A0
:102FD0008DF8040003208DF8050000208DF8060010
:102FE00001208DF807000220009069460F48FFF786
:102FF000DFF801208DF8040003208DF80500002083
:103000008DF8060001208DF8070020200090694609
:103010000748FFF7CDF8012202210448FFF744F9E1
:10302000012220210248FFF73FF91CBD00040240A5
:103030000008024070B50025002400F0EFF800BF42
:1030400018E0002202211148FFF72EF90520FEF7B3
:10305000BBFC012202210D48FFF726F90520FEF7EF
:10306000B3FC6006040E20210948FFF70CF9044365
:10307000681CC5B2082DE4DB002202210348FFF7DB
:1030800013F90520FEF7A0FC204670BD00040240A5
:103090000008024070B5044600F036F9D02000F078
:1030A00081F8FFF761FF204600F07CF8FFF75CFF36
:1030B00000F02AF9D12000F075F8FFF755FFFFF76F
:1030C000B9FF0546012000F043F800F043F9284617
:1030D00070BD2DE9F04106460F4614461D4600F02E
:1030E00013F9002141EA4601C8B200F05BF8FFF78E
:1030F0003BFF20B100F02EF90120BDE8F0813846F9
:1031000000F050F8FFF730FF00F0FEF8012101EB6E
:103110004601C8B200F046F8FFF726FF11E0012C87
:1031200006D1FFF787FF2870012000F011F805E0B5
:10313000FFF780FF2870002000F00AF8601EC4B27C
:103140006D1C002CEBD100F005F90020D5E7000044
:1031500010B5044600F074F8002202210F48FFF772
:10316000A3F80520FEF730FC224620210C48FFF78B
:103170009BF80520FEF728FC012202210748FFF7F3
:1031800093F80520FEF720FC002202210348FFF7F8
:103190008BF80520FEF718FC10BD0000000402406B
:1031A0000008024070B50446002500F049F80022EE
:1031B00002211848FFF778F80520FEF705FC00BF4C
:1031C00024E004F0800028B1012220211248FFF7FA
:1031D0006BF804E0002220210F48FFF765F8600635
:1031E000040E0520FEF7F0FB012202210948FFF73B
:1031F0005BF80520FEF7E8FB002202210548FFF7F7
:1032000053F80520FEF7E0FB681CC5B2082DD8DB9B
:1032100070BD000000040240000802401CB50121FE
:10322000042000F051FC00208DF8040020200090C4
:1032300069460248FEF7BCFF1CBD000000080240C2
:103240001CB50121042000F03FFC01208DF8040092
:1032500003208DF8050000208DF8060001208DF870
:1032600007002020009069460148FEF7A1FF1CBD21
:103270000008024010B50446E006010E1C2000F0D4
:103280008FF810BD10B50446E006010E1B2000F0BB
:1032900087F810BD70B504460025BC2C01DB012564
:1032A00010E0622C01DB02250CE02A2C01DB032557
:1032B00008E0142C01DB042504E00A2C01DB0525C1
:1032C00000E0062529461A2000F06AF870BD70B5A6
:1032D0000446B4F57A7F01DD4FF47A74042C00DAE9
:1032E00004244FF47A7090FBF4F0401EC5B22946D6
:1032F000192000F055F80546264604EBD671C1F3B7
:103300004F00FFF7C7FF70BD10B5FFF799FF01220F
:1033100002210E48FEF7C8FF012220210C48FEF7CB
:10332000C3FF0520FEF750FB002220210848FEF7CE
:10333000BBFF0520FEF748FB002202210348FEF7F1
:10334000B3FF0520FEF740FB10BD00000004024063
:103350000008024010B5FFF773FF002202210E485B
:10336000FEF7A2FF002220210C48FEF79DFF05205A
:10337000FEF72AFB012202210748FEF795FF0520F0
:10338000FEF722FB012220210448FEF78DFF0520D5
:10339000FEF71AFB10BD00000004024000080240C6
:1033A00070B505460C46FFF7AFFFD020FFF7FAFED9
:1033B000FFF7DAFD18B1FFF7CDFF012070BD2846F9
:1033C000FFF7F0FEFFF7D0FD2046FFF7EBFEFFF71B
:1033D000CBFD18B1FFF7BEFF0120EFE7FFF7BAFF03
:1033E0000020EBE72DE9F04105460E4617469846CA
:1033F000FFF78AFF002141EA4501C8B2FFF7D2FE7C
:10340000FFF7B2FD20B1FFF7A5FF0120BDE8F08175
:103410003046FFF7C7FEFFF7A7FD00240CE018F8C1
:103420000400FFF7BFFEFFF79FFD18B1FFF792FF03
:103430000120EBE7601CC4B2BC42F0DBFFF78AFF5F
:103440000020E3E70EB539E00F20FDF733FF1C49FC
:1034500008800E20FDF72EFF1A49088000235A1E0F
:1034600019461948006807F037FE20204FF6FF7113
:103470004FF4FC620423CDE9002102901048028839
:103480006E213C20FFF740FA20204FF6FF714FF4E9
:10349000FC620423CDE9002102900A4802889621AB
:1034A0003C20FFF731FA00231A4619460648006807
:1034B00007F040FF4FF47A7007F08CFBC4E7000080
:1034C00040000010420000106000001000B58DB0F8
:1034D0000121202000F0F8FA0121880200F014FBFD
:1034E0003020019003208DF8080000208DF80B009B
:1034F00001A91148FEF75CFE002003904FF48030D4
:10350000049000200590069003A8FDF721FE0020FE
:1035100007908DF820008DF8210009900B90012074
:103520008DF8300007A90548FDF738FE0121034852
:10353000FDF702FE0DB000BD001402400022014064
:1035400070B5002100230F22C4781CB3174C2468E7
:1035500004F4E064C4F5E064C4F30721C1F1040499
:10356000E3B20A4144789C40E1B28478144021439C
:103570000C07210E0E4C05786155047804F01F05E8
:103580000124AC4005786D11AD0005F1E025C5F8CA
:10359000004109E0047804F01F050124AC40054D0A
:1035A0000678761145F8264070BD00000CED00E06D
:1035B00000E400E080E100E002490143024A1160BA
:1035C000704700000000FA050CED00E070B5002423
:1035D0000EE00021204600F055F9002504E000200F
:1035E00000F01BFA681CC5B2802DF8DB601CC4B269
:1035F000082CEEDB70BD00001CB50121082000F096
:1036000063FA0121082000F05FFA01208DF8040020
:1036100003208DF8050000208DF8060001208DF8AC
:1036200007004003009069460F48FEF7C1FD0120E6
:103630008DF8040003208DF8050000208DF80600A9
:1036400001208DF80700C002009069460648FEF789
:10365000AFFD012251030448FEF726FE0122D102EC
:103660000148FEF721FE1CBD000C024070B5044667
:103670000025FEF745FE00224FF400511848FEF7E2
:1036800013FE0520FEF7A0F900BF26E004F080003D
:1036900028B10122D1021248FEF706FE05E0002201
:1036A0004FF400610E48FEF7FFFD6006040E052092
:1036B000FEF78AF9012251030948FEF7F5FD0520BE
:1036C000FEF782F900224FF400510548FEF7ECFDA9
:1036D0000520FEF779F9681CC5B2082DD6DB70BD50
:1036E000000C024010B5FEF70BFE012251030F48FB
:1036F000FEF7DAFD0122D1020C48FEF7D5FD0520C8
:10370000FEF762F900224FF400610848FEF7CCFD95
:103710000520FEF759F900224FF400510348FEF747
:10372000C3FD0520FEF750F910BD0000000C02405B
:1037300010B5FEF7E5FD00224FF400510E48FEF7EC
:10374000B3FD00224FF400610B48FEF7ADFD0520EC
:10375000FEF73AF9012251030748FEF7A5FD0520BF
:10376000FEF732F90122D1020348FEF79DFD052044
:10377000FEF72AF910BD0000000C024010B500242D
:10378000FEF7ACFD00224FF400511148FEF78CFD0E
:103790000520FEF719F9012251030D48FEF784FDBB
:1037A0000520FEF711F94FF400610948FEF76BFDA3
:1037B00008B1012400E0002400224FF40051044825
:1037C000FEF772FD0520FEF7FFF8204610BD000051
:1037D000000C024010B5FFF70FFFC820FEF7D4F829
:1037E000AE2000F004F9D52000F001F9802000F0AF
:1037F000FEF8A82000F0FBF83F2000F0F8F8D320F6
:1038000000F0F5F8002000F0F2F8402000F0EFF8AA
:10381000A12000F0ECF8C82000F0E9F8DA2000F070
:10382000E6F8122000F0E3F8812000F0E0F8CF2065
:1038300000F0DDF8D92000F0DAF8F12000F0D7F838
:10384000DB2000F0D4F8302000F0D1F8A42000F004
:10385000CEF8A62000F0CBF88D2000F0C8F8142098
:1038600000F0C5F8AF2000F0C2F8FFF7AFFE10BDC2
:1038700010B50246012000E050430B1EA1F10101EA
:10388000FAD110BD70B505460C4645F0B00000F009
:10389000AEF8102141EA141000F0A9F804F00F006E
:1038A00000F0A5F870BD00002DE9F04105460E4678
:1038B0001746721ED206110E6A1E5206100EFFF730
:1038C000E1FF002409E0A7F12001134A02EB0111F6
:1038D000085D00F0A2F8601CC4B2082CF3DB721E75
:1038E000D206110E6A1E012303EB4202D0B2FFF78B
:1038F000C9FF00240BE0A7F12001074A02EB0112E7
:1039000004F10801505C00F088F8601CC4B2082C77
:10391000F1DBBDE8F081000090F400082DE9F047EC
:1039200080460E4617461D46002415E0281B411E02
:103930000A20FFF79DFFB7FBF0F00A21B0FBF1F280
:1039400001FB120000F130093019C1B24A4640466D
:10395000FFF7AAFF601CC4B2AC42E7DBBDE8F0870A
:103960002DE9F0478146884615461E46002D06DBA8
:103970002B2241464846FFF797FF2F4605E02D22B0
:1039800041464846FFF790FF6F42002417E0301B86
:10399000411E0A20FFF76CFFB7FBF0F00A21B0FBD5
:1039A000F1F201FB120000F1300A08EB0400401CA8
:1039B000C1B252464846FFF777FF601CC4B2B4421A
:1039C000E5DBBDE8F0872DE9F04107460E461546D8
:1039D000002407E02A5D3019C1B23846FFF764FFC2
:1039E000601CC4B2285D0028F4D1BDE8F08110B598
:1039F0000446FFF777FE7820FFF738FEFFF7BEFE9C
:103A00000020FFF733FEFFF7B9FE2046FFF72EFE3A
:103A1000FFF7B4FEFFF78CFE10BD10B50446FFF7AC
:103A200061FE7820FFF722FEFFF7A8FE4020FFF797
:103A30001DFEFFF7A3FE2046FFF718FEFFF79EFED0
:103A4000FFF776FE10BD00000149086270470000D4
:103A500000000E422DE9F043C5B004460D4616465F
:103A60001F46DDF83491DDF830814FF4807105A8F0
:103A7000FCF754FC234608A2114905A88DE8E00391
:103A800001F0CCFB00BF0FA105A8FEF72DFA00281E
:103A9000F9D145B0BDE8F0832F6B306770395072B3
:103AA000525A556B2F6965747465726D696E616CDD
:103AB0002F757365722F7465726D696E616C00008D
:103AC000400801084F4B000029B1064A1268024322
:103AD000044B1A6004E0034A12688243014B1A60E7
:103AE000704700003038024029B1064A126802438C
:103AF000044B1A6004E0034A12688243014B1A60C7
:103B0000704700004038024029B1064A126802435B
:103B1000044B1A6004E0034A12688243014B1A60A6
:103B20007047000044380240F0B500210022002414
:103B3000022500260223324F3F6807F00C0121B115
:103B4000042905D0082937D105E02E4F076036E05B
:103B50002D4F076033E02A4F3F1F3F68C7F3805661
:103B6000274F3F1F3F6807F03F036EB1264FB7FB5B
:103B7000F3F7DFF88CC0ACF1040CDCF800C0CCF338
:103B8000881C07FB0CF40CE01E4FB7FBF3F7DFF8C3
:103B900070C0ACF1040CDCF800C0CCF3881C07FB4F
:103BA0000CF4174F3F1F3F68C7F301477F1C7D0090
:103BB000B4FBF5F7076002E0124F076000BF00BFDB
:103BC0000F4F3F6807F0F0010909104F7A5C076852
:103BD000D74047600A4F3F6807F4E051890A0B4F0E
:103BE0007A5C4768D7408760054F3F6807F46041BB
:103BF000490B064F7A5C4768D740C760F0BD0000AC
:103C0000083802400024F40000127A00000000107E
:103C100010B501460022002300204A11012A02D1DA
:103C20000A4C236808E0022A03D1084C7034236848
:103C300002E0064C7434236801F01F020124944012
:103C40001C400CB1012000E0002010BD00380240F3
:103C50000021094A11701170012802D0042808D1EE
:103C600003E00121044A117004E00521024A1170A9
:103C700000E000BF00BF7047703802400149086093
:103C8000704700003C0E4742002100F44072B2F53C
:103C9000407F08D1094A116821F4F811084A02400E
:103CA0001143064A1160054A68321268C0F30B03DB
:103CB0001A43024B68331A6070470000083802400C
:103CC000FFFCFF0F10B540210148FEF7E7FA10BDD9
:103CD00000100240014600BF080900EB80004200CE
:103CE00001F00F001044C0B270470146002204E00A
:103CF000501CC2B2A1F10A00C1B20A29F8DA1007B9
:103D000041EA106070470000002101098AB242F0C8
:103D10008002044B1B6803F0800363EA0202014B3C
:103D20001A6070470C28004000B589B001210807CF
:103D3000FFF7DAFE0120FFF787FE03208DF80C0065
:103D400001208DF80D0000208DF80E0001208DF867
:103D50000F0003A8FFF7F4FB4FF48000FEF732F9E1
:103D60004FF48000019000208DF8080008208DF8A5
:103D7000090001208DF80A0001A8FEF735F901209D
:103D8000FFF766FF00BF4120FFF742FF0028FAD08F
:103D90004FF48070FFF778FF7F200790FF20089096
:103DA0000020069006A800F0E1F817208DF8140016
:103DB00000208DF815008DF8160005A9012000F0EF
:103DC0006BF911208DF8110005208DF812002320C9
:103DD0008DF8130007208DF8100004A9012000F0D1
:103DE000F7F80120FFF74AFF00F0E0F9042000F0A7
:103DF0000DFA002000F0B8F90121880300F084F8E2
:103E0000012000F01BFA4FF48040FFF77DFF09B05E
:103E100000BD000008B50022009200200021104AD9
:103E2000126802F04002CAB9421E0D4B1A6000BF70
:103E30000B4A126802F04001009A521C0092009A4C
:103E4000B2F5803F01D00029F2D0054A126802F095
:103E500040020AB1012002E0002000E0012008BD7C
:103E60000C2800400348006820F0800001490860E9
:103E7000704700000C28004030B5014600200022A9
:103E800000230C4C246804F004020A4C383C2468DB
:103E90000C4002EAD13544EA0503064C343C246860
:103EA00004EA11121BB194B20CB1012000E0002011
:103EB00030BD00004028004070B506460C46002585
:103EC0000F4800680F4900EA0105C5F3054020705E
:103ED000C5F30620607005F07F00A07005F4800037
:103EE000000CE0705EB92078FFF7F4FE2070607877
:103EF000FFF7F0FE6070A078FFF7ECFEA07070BDD9
:103F0000002800407F7F7F00CA22174B1A6053228F
:103F10001A6091B1144A1C3A126820F004031A4343
:103F2000114B1C3B1A60104A1C32126800F004034B
:103F30001A430D4B1C331A6011E00B4A1C3A1268ED
:103F400020F004039A43084B1C3B1A60064A1C32BB
:103F5000126800F004039A43034B1C331A60FF22DB
:103F6000014B1A60704700002428004030B5044619
:103F70000025CA201549086053200860FFF74AFF52
:103F800000B91DE011481C38006820F040000F49BE
:103F90001C39086008460068216808430B491C3931
:103FA00008600A491439A068086008460068A188BA
:103FB00040EA0140054914390860FFF753FF012525
:103FC000FF2002490860284630BD00002428004038
:103FD0002DE9F04105460C46002600274DB96078D2
:103FE00000F01000102804D1607820F010000A3092
:103FF000607005B908E06078FFF76CFE0646A078AF
:10400000FFF768FE064600BF55B1E078000461780E
:1040100040EA0120A1780843217840EA413611E0C6
:10402000E078FFF762FE4FEA00486078FFF75DFE38
:1040300048EA0028A078FFF758FE48EA00082078F0
:1040400048EA4036CA201249086053200860FFF74A
:10405000E1FE08B9002714E00E4830400C49203931
:104060000860FFF7FFFE0A481C38006800F02000D7
:1040700030B900F09BF808B9002702E0012700E002
:104080000127FF20024908603846BDE8F0810000A2
:10409000242800403FFFFF002DE9F04105460C4673
:1040A000002600274DB92E48006800F0400000B1FE
:1040B00002E00020E07000BF0DE02948006800F039
:1040C000400020B12078FFF705FE064602E0002000
:1040D000E07000BF00BF55B120780004617840EA6D
:1040E0000120A1780843E17840EA014611E02078F8
:1040F000FFF7FBFD4FEA00486078FFF7F6FD48EA5E
:104100000028A078FFF7F1FD48EA0008E07848EAC7
:104110000046CA2012491C31086053200860FFF78E
:1041200079FE08B9002713E00E4830400C490839E1
:104130000860FFF797FE0A48006800F0200030B9D9
:1041400000F034F808B9002702E0012700E0012759
:10415000FF2003491C3108603846BDE8F0810000AB
:10416000082800407F7F7F00CA21054A1160532143
:104170001160034910390860FF2111607047000089
:104180002428004010B54FF48040FFF775FE48B179
:104190000120054908708003FFF7B6FD4FF4800049
:1041A000FDF710FF10BD00001C00001008B5002234
:1041B000009200200021CA22134B1A6053221A6079
:1041C000114A183A126822F0A0020F4B183B1A60ED
:1041D00000BF0D4A183A126802F02001009A521CE2
:1041E0000092009AB2F5003F01D00029F1D0064AB2
:1041F000183A126802F020020AB1012000E0002003
:10420000FF22014B1A6008BD24280040CA210A4A37
:1042100011605321116008491C39096821F0070118
:10422000054A1C3A11601146096801431160FF21DB
:10423000014A1160704700002428004018B501466B
:104240000023009300220020CA23194C236053232B
:10425000236049B1164B1C3B1B6843F48063144C2C
:104260001C3C236001201FE0114B1C3B1B6823F406
:1042700080630F4C1C3C236000BF0D4B183B1B6838
:1042800003F00402009B5B1C0093009BB3F5803F8E
:1042900001D0002AF1D0064B183B1B6803F0040341
:1042A0000BB9002000E00120FF23014C236018BD62
:1042B000242800400024002500260027A046A1460F
:1042C000A246A3461E205749088050205649088020
:1042D0004FF47A7055490880554908803220554975
:1042E000088044F6206006F075FC99E0524800789A
:1042F0004C490988884205DD25B901254FA15BA0FD
:1043000000F010FB6048007847490988884205DDC5
:1043100026B9012649A15DA000F004FB624800888F
:1043200042490988884205DD27B9012743A15FA0DA
:1043300000F0F8FA664800883D490988884208DD9F
:10434000B8F1000F05D14FF001083CA157A000F0D3
:10435000E9FA60480078012807D1B9F1000F04D1CB
:10436000814636A15CA000F0DDFA624800780128A1
:1043700007D1BAF1000F04D1824630A15EA000F04F
:10438000D1FA654B93ED000ABDEEC00A10EE102A7B
:10439000002A01DB134600E05342DFF898C0BCF866
:1043A00000C0634523DC5D4B93ED000ABDEEC00AFF
:1043B00010EE101A002901DB0B4600E04B42DFF83B
:1043C00074C0BCF800C0634511DC554B93ED000A86
:1043D000BDEEC00A10EE100A002801DB034600E023
:1043E0004342DFF850C0BCF800C0634508DDBBF1B4
:1043F000000F05D14FF0010B10A14AA000F092FA76
:104400004FF47A7006F0E6FB601CC4B21E2C07DD88
:104410000024002500260027A046A146A246A34668
:1044200064E700005400001056000010580000100F
:104430005A0000105C0000103D0000103030333195
:104440003030333830303334303033373030333647
:104450003030333930303337303033393030333433
:1044600030303332303033380000000035424134D0
:10447000353138353645323935454136384643379A
:1044800039414438000000003E00001035424134FC
:104490003531383536453746354541363846433768
:1044A00039414438000000004000001035424134DA
:1044B000353138353730444639364645364435335C
:1044C000354541363846433739414438000000000D
:1044D0004200001045000010354241343531383576
:1044E0003533443137334230373036423731333069
:1044F0000000000044000010363730393445424196
:104500003534353838464442353136353542413414
:104510003531383500000000480000104C00001014
:10452000500000103636374138304644354238396D
:1045300039363332374543383741454634463444BB
:1045400037463645363533393533443800000000B8
:1045500010B54FF400710348FBF7E0FE002002495C
:10456000088010BDB60100101200001070B504469E
:104570000D4641F28836204600F09AF80EE000F031
:1045800015F840B129460848FBF7D3FE18B1FFF7EC
:10459000DFFF002070BD0A20FDF7F6F9301EA6F1FE
:1045A0000106ECD10120F5E7B60100100A480088A9
:1045B00008B90020704708480088084909888842DF
:1045C00004D10020044908800120F3E70248008854
:1045D000024908800020EDE71200001014000010CE
:1045E00010B588B0044601210420FFF76DFA0121BF
:1045F000C804FFF779FA02208DF8080003208DF82F
:10460000090000208DF80A0001208DF80B004FF4FE
:104610004060019001A91C48FDF7CAFD08220A214B
:104620001948FDF70DFE08220B211748FDF708FE7B
:1046300004940020ADF81400ADF81600ADF8180091
:10464000ADF81C000C20ADF81A0004A90F4800F0CA
:104650002DFD34208DF80C0000208DF80D008DF814
:104660000E0001208DF80F0003A8FEF769FF01225C
:1046700040F22551054800F0F3FC0121034800F009
:10468000ACFC08B010BD000000080240004C004027
:1046900010B504462146054800F077FD00BF802193
:1046A000024800F0A6FC0028F9D010BD004C0040E4
:1046B00010B5044603E014F8010BFFF7E9FF20787A
:1046C0000028F8D110BD000030B500228B071C0F68
:1046D0000F2303FA04F20B4B8C1053F8243093434E
:1046E000084C8D1044F8253023468C1053F82430A4
:1046F0008C07240F00FA04F42343024C8D1044F875
:10470000253030BD083801401FB5FFF763F86CA2B3
:1047100001210846FFF757F93A2208210120FFF747
:10472000C3F83A220B210120FFF7BEF800235A1EDE
:1047300019466548006806F0CFFCFDF725FF4FF6E7
:10474000FF704FF4A073F022002100900846FDF79F
:104750008EFE002020214FF6FF724FF47843CDE902
:104760000021029059A201461E20FEF718F90020F0
:1047700020214FF6FF721F23CDE90021029057A29E
:104780001E21FEF70CF9002020214FF6FF721F2397
:10479000CDE90021029053A24621FEF700F9002046
:1047A00020214FF6FF721F23CDE9002102904FA276
:1047B0001E216E20FEF7F3F8002020214FF6FF7235
:1047C0001F23CDE90021029049A246216E20FEF769
:1047D000E6F8002020214FF6FF721F23CDE90021CB
:1047E000029044A26E21FEF7DAF8002020214FF655
:1047F000FF721F23CDE90021029040A29621FEF70F
:10480000CEF8002020214FF6FF721F23CDE90021B2
:1048100002903CA2BE21FEF7C2F8002020214FF6F4
:10482000FF721F23CDE90021029038A2E621FEF796
:10483000B6F8002020214FF6FF721F23CDE900219A
:10484000029034A24FF48771FEF7A9F800231A46AC
:1048500019461D48006806F06DFD30E02F480078CD
:10486000012828D100202D49087003A9FFF724FB57
:1048700000235A1E19462A48006806F02DFC9DF8B0
:104880000C20022306210120FFF748F89DF80D2097
:10489000022309210120FFF741F89DF80E20022391
:1048A0000C210120FFF73AF800231A4619461C484C
:1048B000006806F03FFD4FF47A7006F08BF9CDE703
:1048C00074696D653A00000060000010616C6979E0
:1048D000756E73797374656D0000000074656D3AD0
:1048E0000000000068756D3A000000004300000001
:1048F000255248006D71323A000000006D71353A62
:1049000000000000666972653A000000626F647919
:104910003A000000706C6163653A00001C000010F2
:104920006400001030B599B005460C466421684615
:10493000FBF7F4FC224619A1684600F06FFC1BA1AE
:104940001BA0FFF713FE6420FDF71EF817A11DA0A2
:10495000FFF70CFE6420FDF717F814A11CA0FFF769
:1049600005FE6420FDF710F810A11CA0FFF7FEFD66
:104970006420FDF709F81FA16846FFF7F7FD6420E2
:10498000FDF702F82846FFF793FE1A20FFF780FE96
:1049900041F28830FCF7F8FF19B030BD41542B4389
:1049A0004D47533D222573220D0A00004F4B000056
:1049B00041542B435343533D2255435332220D0A56
:1049C0000000000041542B434D47463D310D0A0085
:1049D00041542B435343413F0D0A000041542B43A4
:1049E000534D503D31372C3136372C302C32350D6C
:1049F0000A0000003E00000010B588B00446012106
:104A00000846FFF761F801211020FFF77DF802202A
:104A10008DF8080003208DF8090000208DF80A00A9
:104A200001208DF80B004FF4C060019001A91C48D3
:104A3000FDF7BEFB072209211948FDF701FC0722FB
:104A40000A211748FDF7FCFB04940020ADF8140080
:104A5000ADF81600ADF81800ADF81C000C20ADF84C
:104A60001A0004A90F4800F021FB25208DF80C0046
:104A700000208DF80D008DF80E0001208DF80F003C
:104A800003A8FEF75DFD012240F22551054800F024
:104A9000E7FA0121034800F0A0FA08B010BD0000B9
:104AA00000000240001001400CB500200190009071
:104AB0003448006840F480303249086000BF314813
:104AC000006800F4003000900198401C01900098AC
:104AD00018B90198B0F5A04FF1D12A48006800F448
:104AE000003010B10120009001E0002000900098FB
:104AF000012846D123484030006840F080502149C9
:104B0000403108602048006840F440401E49086079
:104B10001C48083000681B490831086008460068D6
:104B200040F4004008600846006840F4A050086067
:104B30001648091F0860081F006840F08070091FB0
:104B4000086000BF0F48006800F000700028F9D02E
:104B500040F205700E4908600A480830006820F0ED
:104B600003000849083108600846006840F0020068
:104B7000086000BF03480830006800F00C000828F7
:104B8000F8D10CBD003802400070004008544007C6
:104B9000003C02402DE9FC4105468846002450A116
:104BA0002846FBF7C6FB002848D04FA12846FBF754
:104BB0000FFC4DA10020FBF70BFC06464BA1304635
:104BC000FBF706FC0746FBF7D5FDC4B20A2094FBB1
:104BD000F0F100FB114194FBF0F001EB0010C0B2CA
:104BE0008DF8040041A10020FBF7F2FB0746FBF71C
:104BF000C1FDC4B20A2094FBF0F100FB114194FB0B
:104C0000F0F001EB0010C0B28DF8050037A10020D4
:104C1000FBF7DEFB0746FBF7ADFDC4B20A2094FBB1
:104C2000F0F100FB114194FBF0F001EB0010C0B279
:104C30008DF8060001A90120FFF72EFA2CA12846C5
:104C4000FBF777FB002848D027A12846FBF7C0FBDD
:104C500025A10020FBF7BCFB064627A13046FBF749
:104C6000B7FB0746FBF786FDC4B20A2094FBF0F1C0
:104C700000FB114194FBF0F001EB0010C0B28DF885
:104C800003001DA10020FBF7A3FB0746FBF772FD05
:104C9000C4B20A2094FBF0F100FB114194FBF0F048
:104CA00001EB0010C0B28DF8010013A10020FBF74A
:104CB0008FFB0746FBF75EFDC4B20A2094FBF0F1C0
:104CC00000FB114194FBF0F001EB0010C0B28DF835
:104CD000020069460120FFF77BF9BDE8FC81000076
:104CE00074696D65000000003D0000003A0000009E
:104CF00064617465000000002D0000007CB505466D
:104D0000002408A103C9CDE900018DF8045000BFBB
:104D100004E01DF80400FDF7DBFF641C062CF8DB43
:104D20007CBD00007E04410002EF000000B599B098
:104D300064216846FBF7F2FAFDF7F6F8A0B10BA183
:104D40000E48FBF7F6FA78B10C490DA000F056FAC0
:104D500069460A4802F0FEFC684601F0C3FDFCF714
:104D600065FE012019B000BD0020FBE72B4D51541A
:104D7000545355425245435600000000E8060010C7
:104D8000BDD3CAD5B5BDB5C4CAFDBEDD3A257300D5
:104D9000042808D14FF0E021096941F004014FF0E7
:104DA000E022116107E04FF0E021096921F00401E0
:104DB0004FF0E0221161704710B500BF502080F322
:104DC0001188BFF34F8FBFF36F8F00BF06F08EFCCB
:104DD00018B14FF080500449086000BF002080F3F4
:104DE000118800BF10BD000004ED00E010B51548AB
:104DF000006840F47000134908601348006840F0F0
:104E000001001149086000200F49083108600E4870
:104E100000680E4908400C4908600D48091D0860EB
:104E2000081F006820F48020091F08600020064940
:104E30000C310860FFF738FE4FF0006001498039FF
:104E4000086010BD88ED00E000380240FFFFF6FE6C
:104E50001030002410B540F225510F4800F0D6F86C
:104E6000012818D10D480088B0F5007F02D300203A
:104E70000A490880084800F083F9C1B2074802884F
:104E80000088401C054B18800548815440F225518C
:104E9000014800F093F810BD004C004012000010D3
:104EA000B601001010B540F225510B4800F0AEF8E5
:104EB00001280FD1084800F063F9C1B2074804780F
:104EC000601C064A10700648015540F22551024800
:104ED00000F074F810BD0000001001401000001038
:104EE0008401001010B540F225510F4800F08EF8F3
:104EF000012817D10D480088FF2802D900200B494E
:104F00000880094800F03CF9C1B2084802880088CE
:104F1000401C064B18800648815440F22551024837
:104F200000F04CF810BD0000004400401C010010CF
:104F3000E806001010B504462146054800F025F9A2
:104F400000BF8021024800F054F80028F9D010BDBD
:104F50000044004010B5044603E014F8010BFFF7CD
:104F6000E9FF20780028F8D110BD000010B540F20C
:104F700025510F4800F04AF8012818D10D48008843
:104F8000B0F5007F02D300200A490880084800F0ED
:104F9000F7F8C1B2074802880088401C054B18800A
:104FA0000548815440F22551014800F007F810BD32
:104FB0000048004016000010B603001010B5002293
:104FC000002340F66A14A14200D100BF0A12012456
:104FD0009440A3B2DC43048010BD21B1828942F425
:104FE0000052828104E082894DF6FF731A4082816B
:104FF000704702460020B1F5007F00D100BF138842
:105000000B400BB1012000E00020704770B5024654
:10501000002400230025002040F66A16B14200D18A
:1050200000BFC1F3421501F01F03012606FA03F386
:10503000012D02D19689334006E0022D02D1168A55
:10504000334001E0968A33400C12012606FA04F43C
:105050001688344013B10CB1012000E0002070BD6F
:10506000F0B50346002400260025002040F66A170C
:10507000B94200D100BF1846C1F3421401F01F0627
:10508000012707FA06F5012C01D10C3004E0022CAF
:1050900001D1103000E014301AB107682F430760C7
:1050A00002E00768AF430760F0BD00002DE9FF474D
:1050B00005460E460024A14600BFA046B08900B1B7
:1050C00000BF2C8A24F44054F08804432C82AC891D
:1050D00041F20C608443B0883189084371890843E8
:1050E0000443AC81AC8A24F44074B0890443AC829C
:1050F0006846FEF719FD2048854202D01F488542C8
:1051000002D1DDF80C9001E0DDF80890A88900F4E8
:10511000004040B109EBC90000EB091031684900BB
:10512000B0FBF1F707E009EBC90000EB09103168AB
:105130008900B0FBF1F76420B7FBF0F0040120090F
:10514000642101FB1078A88900F4004040B13220AE
:1051500000EBC800B0FBF1F000F00700044308E0EA
:10516000322000EB08106421B0FBF1F000F00F00DA
:1051700004432C81BDE8FF8700100140001401406A
:1051800001468888C0F308007047C1F30802828096
:105190007047000038B5002406A00068009000BFEA
:1051A00004E01DF80400FDF793FD641C042CF8DBFB
:1051B00038BD00007E0206EF38B5002406A0006866
:1051C000009000BF04E01DF80400FDF781FD641CA1
:1051D000042CF8DB38BD00007E0205EF10B510216D
:1051E0000148FDF75BF810BD0004024010B5102126
:1051F0000148FDF751F810BD000402400FB4054B03
:1052000010B503A9044A029800F04EFE10BC5DF8E8
:1052100014FB00005D760008740100100FB4084B09
:1052200010B504A902AA039800F03EFE044602A9A4
:10523000002001F0BCF9204610BC5DF814FB000012
:10524000AF65000803B401984100009850EAC120FE
:1052500018BF04204A0D18BF40F0010040F2FF7251
:10526000B2EB515F08BF40F00200012808BF0520E3
:1052700002B07047004870478001001030B528B177
:10528000144C031F002021680A4605E0084630BD83
:105290009A4203D810465268002AF9D1002800D05B
:1052A00041680BD00468A3EB0005A54204D11B683C
:1052B0001C440346046002E0436000E023603AB10E
:1052C0001C68D51AA54203D115682C441C6052688D
:1052D0005A6030BD7801001070B5C1482DED020B49
:1052E0002DED0E8B82B0119D25F000449FEDBEDBAD
:1052F0009FEDBFEB84423EDBA4F140511098A1F139
:105300007F6108430FD0BC48844202DC28D110984A
:1053100030B39DED100B02B0BDEC0E8B02B0BDE8BA
:10532000704000F0ADBC9DED100B53EC1D2B51EC0B
:10533000100BFBF7D3FA9DED100B41EC180B53EC5F
:105340001E2B51EC100BFBF7C9FA53EC182BFBF793
:105350001EFA41EC100B02B0BDEC0E8B02B070BD1A
:10536000012000F0D1FC02B0BDEC0E8B02B0BDE814
:10537000704000F099BCA1489FEDA18B844256DAA1
:105380009DED100BB4F1795F0ADA51EC100BFFF7C9
:1053900059FF042808BF00F097FC9DED100BDAE7D9
:1053A00053EC102B51EC100BFBF798FA41EC190B56
:1053B00095480621B0EE490AF0EE690A784400F0FB
:1053C000BBFB53EC192B51EC100BFBF787FA41ECAC
:1053D0001A0B8E48B0EE490AF0EE690A04217844AF
:1053E00000F0AAFB53EC192B51EC100BFBF776FAEB
:1053F00053EC182BFBF7CBF941EC100B51EC1A0BCB
:1054000053EC102BFBF7DCFACDE900019DED000B0E
:1054100053EC102B9DED100B51EC100BFBF75EFACB
:105420009DED101B53EC112BFBF7B1F9D2E09DED74
:10543000100B51EC100B02F005F953EC182BFBF795
:105440004AFA9FED730BCDE9000153EC102B9DED53
:10545000000B51EC100BFBF741FA41EC190B6E48B5
:105460000621B0EE490AF0EE690A784400F064FBC8
:1054700053EC192B51EC100BFBF730FA41EC1B0BE2
:105480006648B0EE490AF0EE690A0421784400F05B
:1054900053FB53EC192B51EC100BFBF71FFA53EC99
:1054A000182BFBF774F941EC1C0B51EC190B05F0B0
:1054B0005FF941EC180B5A489FED5BABA04222DC30
:1054C00053EC1C2B51EC1B0BFBF77AFACDE90001D6
:1054D0009DED000B51EC180B53EC102BFBF7FEF974
:1054E00053EC182BFBF753F953EC1A2BFBF7F6F997
:1054F00053EC1D2BFBF7ECF953EC1E2BFBF7EBF9F0
:1055000041EC100B5FE08DED008B002000909DEDD5
:10551000000B51EC180B53EC102BFBF738F99DEDF9
:10552000000B41EC1E0B53EC102B51EC100BFBF756
:10553000D5F953EC192BFBF7CEF953EC1E2BFBF7E7
:105540003FFA41EC190B53EC1C2B51EC1B0BFBF7F6
:1055500037FA41EC1B0B53EC1A2B51EC190BFBF7F0
:10556000BDF953EC1D2BFBF7B6F941EC190B53ECCD
:105570001A2B51EC180BFBF7B1F953EC1B2BFBF773
:10558000ADF953EC192BFBF7A3F99DED000B41ECA2
:10559000180B53EC1A2B51EC100BFBF79FF99FEDF6
:1055A000249B53EC192BFBF796F941EC100B51ECB3
:1055B000180B53EC102BFBF78BF953EC192BFBF763
:1055C0008AF941EC100B002D3FF7C5AE51EC100BE2
:1055D00081F0004141EC100BBDE60000000000002E
:1055E0000000F03F00000000075C143326A6913C49
:1055F000182D4454FB21F93F0000F07F0000E03FEC
:10560000000000000000F03F08B3000016B30000E7
:10561000000000000000E03F5AB2000068B2000045
:105620003333EF3F000000000000000000000040A6
:10563000182D4454FB21E93F70B59B482DED020B1A
:105640002DED068B079D25F00044A04218DC9748FD
:10565000844202DC0AD1069840B19DED060BBDECF8
:10566000068B02B0BDE8704000F00ABB002DCCBF35
:105670009FED8F0B9FED900BBDEC068B02B070BDC4
:105680008F48A04215DD8F48A042D8BF4FF0FF34AD
:1056900058DD9DED060B51EC100BFFF7D3FD0428F0
:1056A00008BF00F011FB9DED060BBDEC068B02B0B0
:1056B00070BD9DED060B51EC100B01F0C3FFCDE961
:1056C000060181489FED828BA0423CDD8248A042CA
:1056D0001FDD00249FED82AB9DED060B53EC1A2BD2
:1056E00051EC100BFBF753F89DED060B41EC190B39
:1056F00053EC1A2B51EC100BFBF7F0F853EC182B72
:10570000FBF7E6F853EC192BFBF75AF9CDE9060144
:1057100049E09DED060B012453EC182B51EC100BC6
:10572000FBF735F89DED060B41EC190B53EC182BEC
:1057300051EC100BFBF7CCF853EC192BFBF740F9AD
:10574000CDE906012FE06848A0421FDD02249FED4D
:10575000689B9DED060B53EC192B51EC100BFBF7DE
:10576000BDF853EC182BFBF712F89DED060B41EC3E
:10577000180B53EC192B51EC100BFBF7A9F853EC59
:10578000182BFBF71DF9CDE906010CE09DED060B8A
:10579000032453EC102B9FED580B51EC100BFBF72F
:1057A0000FF9CDE906019DED060B53EC102B51ECE2
:1057B000100BFBF793F841EC180B53EC182BFBF78D
:1057C0008DF841EC190B4E480621B0EE490AF0EE77
:1057D000690A784400F0B0F953EC182B51EC100B27
:1057E000FBF77CF841EC180B4648B0EE490AF0EEA6
:1057F000690A0521784400F09FF953EC192B51EC0C
:10580000100BFBF76BF841EC100B51EC180B53EC41
:10581000102B002C0EDAFAF7BAFF9DED061B53ECA5
:10582000112BFBF75BF89DED061B53EC112BFBF7DF
:1058300052F835E0FAF7ABFF9DED061B53EC112B48
:10584000FBF74CF841EC100B2F48784400EBC400F8
:1058500090ED001B51EC100B53EC112BFBF738F8BB
:105860009DED061B53EC112BFBF732F841EC100BAE
:105870002648784400EBC40090ED001B51EC100B5F
:1058800053EC112BFBF727F841EC100B002DA2BFB6
:10589000BDEC068B02B070BD51EC100B81F00041E5
:1058A00041EC100B01E70000000010440000F07F05
:1058B000182D4454FB21F93F182D4454FB21F9BF06
:1058C0000000DC3F0000203E0000F33F000000002D
:1058D000000000000000F03F0000E63F0000000074
:1058E00000000000000000400080034000000000B5
:1058F000000000000000F83F000000000000F0BFC2
:10590000AAAF000060AF0000EAAE0000A2AE000047
:1059100070B56F4E2DED040B2DED048B82B0DDF8CC
:1059200024C0DDE907235C422CF000411C4341EA1E
:10593000D474069D22F00040B44205D86C422C433A
:1059400040EAD474B4420BD99DED081B9DED060BC3
:1059500002B0BDEC048B04B0BDE8704000F09AB911
:10596000ACF14054A4F17F641C430BD0022404EA40
:10597000AC7444EAD27405439FED578B9FED582BCE
:1059800007D015E09DED060B51EC100B00F074FEF6
:1059900042E0002C11BF012C9DED060B02B0BDECC6
:1059A000048B04BF04B070BD022C38D0032C3BD054
:1059B0000B439FED4D1B9FED4E0B0AD0B14218D10A
:1059C000B04209D121F0804120F080400991079038
:1059D0000FE0002A15DA10E0474B7B44002C08BF8B
:1059E00093ED000B0DD0012C10D0022C17D0032CFE
:1059F0001AD0B0421DD1002A03DAB0EE410AF0EE0F
:105A0000610A02B0BDEC048B04B070BD93ED000BD5
:105A100051EC100B81F0004141EC100BF1E7B0EEBE
:105A2000480AF0EE680AECE7B0EE420AF0EE620ACD
:105A3000E7E7401A00159FED329B3C28C8BF8DED6B
:105A4000000B17DCBCF1000FBCBF10F13C0F8DED5B
:105A5000009B0FDB9DED080B53EC102B9DED060B0F
:105A600051EC100BFAF7ACFF01F0ECFD00F004FE76
:105A7000CDE90001B4B1012C10D0022C9FED220B16
:105A800053EC102B9DED000B51EC100B19D0FAF7D5
:105A90001FFF53EC182BFAF71BFFBDE7019880F0AE
:105AA000004001909DED000B53EC192B51EC100BB5
:105AB000FBF728F804BF022000F026F99DED000B4B
:105AC0009FE7FAF705FF53EC182BFAF704FFA3E75B
:105AD0000000F07F00000000182D4454FB21094015
